:020000040800F2
:10000000281D0120C1020008512E0008732D000890
:10001000752D0008090C00082D3D000800000000A7
:100020000000000000000000000000005938000837
:10003000A50C000800000000532E00085B380008E3
:10004000E5020008E5020008E5020008E5020008F4
:10005000E5020008E5020008F50C0008E5020008CA
:10006000090D00081D0D0008310D0008E50200080B
:10007000E5020008E5020008E5020008290C000876
:10008000E5020008E5020008E5020008E5020008B4
:10009000E5020008E5020008E5020008E5020008A4
:1000A000E5020008E5020008E5020008E502000894
:1000B000E5020008E502000871380008E5020008C2
:1000C000E5020008E5020008E5020008E502000874
:1000D000E5020008213D0008E5020008E5020008ED
:1000E000E5020008E5020008E5020008E502000854
:1000F000E5020008E5020008E5020008E502000844
:10010000E5020008E5020008A5380008E50200083D
:10011000E5020008E5020008E5020008E502000823
:10012000E5020008E5020008E5020008E502000813
:10013000E5020008E5020008E5020008E502000803
:10014000E5020008E5020008E5020008E5020008F3
:10015000E5020008E5020008E5020008E5020008E3
:10016000E5020008E5020008E5020008E5020008D3
:10017000E5020008E5020008E502000800000000B2
:10018000E5020008E502000800F002F800F06FF850
:100190000AA090E8000C82448344AAF10107DA45E2
:1001A00001D100F064F8AFF2090EBAE80F0013F0C5
:1001B000010F18BFFB1A43F001031847303201004A
:1001C000503201000A444FF0000C10F8013B13F0CC
:1001D000070408BF10F8014B1D1108BF10F8015BA0
:1001E000641E05D010F8016B641E01F8016BF9D193
:1001F00013F0080F1EBF10F8014BAD1C0C1B09D1EA
:100200006D1E58BF01F801CBFAD505E014F8016B5B
:1002100001F8016B6D1EF9D59142D6D370470000ED
:100220000023002400250026103A28BF78C1FBD8FF
:10023000520728BF30C148BF0B607047642900F0E7
:100240003981752900F03681782900F06F816329A2
:1002500000F06F84732900F07484002070471FB58C
:100260000FF010F900F067FA1FBD10B510BD00F0D7
:100270009BFC1146FFF7F3FF0BF0DCF900F0B9FC33
:1002800003B4FFF7F2FF03BC03F068FD0B49D1F89C
:1002900000C04A685CF8043B1068184442F8040B3C
:1002A0008C4528BFA1F1DC0C8A4228BFA1F1DC02F9
:1002B000C1F800C04A6020F000407047BC1801201F
:1002C0000C48016841F4700101600B4880470B48FD
:1002D0000047FEE7FEE7FEE7FEE7FEE7FEE7FEE794
:1002E000FEE7FEE7FEE7000005480649044A064B24
:1002F0007047000088ED00E06138000889010008BF
:1003000028190120281D012028190120704753EACF
:10031000020C00F069802DE9F04B4FF00006002B35
:100320001FBFB3FA83F503FA05F424FA05F65E401D
:1003300012BF1643B2FA82F502FA05F4C5F12005A0
:100340001EBF22FA05FC44EA0C04203556EA044C90
:100350004FEA144418BF641C4FF000084FF0000926
:10036000904271EB030C39D3002919BFB1FA81F720
:1003700001FA07F6B0FA80F700FA07F6C7F120078E
:100380001EBF20FA07FC46EA0C062037B6FBF4FC39
:10039000A7EB0507103F07F01F0BCBF120060CFA67
:1003A0000BFB2CFA06F644BFB3460026202FA4BF51
:1003B0005E464FF0000B5BEA060C08BF4FF0010BE6
:1003C00019EB0B09ABFB027C48EB0608C01B06FBD4
:1003D00002CC0BFB03CC71EB0C01C1E70B460246D0
:1003E00041464846BDE8F08B13B54FF000004FF092
:1003F0000001AFF30080BDE81C4070470FB4044912
:1004000010B503AA029800F0A1FB10BC5DF814FB24
:100410006801002070B5044685690068C10601D5F1
:10042000302600E02026C00707D070BDD4E90121A6
:1004300030469047206A401C20626D1EF6D570BD84
:1004400070B5044685690078C00707D170BDD4E94E
:10045000012120209047206A401C20626D1EF6D5A5
:1004600070BD70B50C460546012A05D02878800677
:1004700000D5EA69002302E0012305E05B1C9342FA
:1004800002D2E05C0028F9D1A869E618C01AA86178
:10049000286A184428622846FFF7BCFF04E0D5E923
:1004A000012114F8010B9047B442F8D32846FFF716
:1004B000C7FF70BD2DE9F04106460024106875297C
:1004C000314616A510D0AFF30080002802DA404272
:1004D00013A507E031688A0701D512A502E0490794
:1004E00004D511A5012401E0AFF3008000210A2208
:1004F00006F1240709E0B0FBF2FCB0FBF2F302FBCB
:100500001C00303078541846491C0028F3D123468B
:100510002A463046BDE8F04100F0A8BA00000000CD
:100520002D0000002B0000002000000070B50446E4
:100530000D4621461068AFF300802188090502D5D9
:100540000F4A7A4402E00E4A7A440E32002104F146
:10055000240305E000F00F060009965D5E54491C77
:100560000028F7D120780023000704D5702D02D091
:1005700009B1022311322046BDE8704000F076BA7E
:10058000CE2701002DE9F05F894604464FF0000AAE
:10059000DFF874B1FB44C0F820A02046E16888472A
:1005A000002874D0252806D0D4E901219047206A7C
:1005B000401C2062F1E700265F462046E16888473C
:1005C0002028054607DB312D05D2781910F8200CBC
:1005D00008B10643F1E7B00701D526F00406C4F8D8
:1005E0001CA00027C4F818A02A2D09D0284603F023
:1005F000AEFB38B304EB8708303DC8F8185019E05B
:1006000059F8041B204604EB87029161E168884792
:10061000012F054618D1E069002820DA26F02006CF
:100620001DE0D8F8180000EB800005EB40003038E2
:10063000C8F818002046E1688847054603F087FBA4
:100640000028EED1012F0AD02E2D08D12046E168D6
:1006500088477F1C0546022F46F02006C4DBA069B0
:10066000002803DA404246F00106A061F00701D0FD
:1006700026F010066C2D0BD0682D09D04C2D39D0EA
:100680006A2D35D0742D35D07A2D33D016E038E070
:10069000E1682F4620468847B842054609D16C2FAD
:1006A00026D04FF48060E16806432046884705461F
:1006B00004E06C2F1AD04FF4807006430DB3A5F1FF
:1006C0004100192802D8203546F400664A462946DA
:1006D000204626604E46FFF7B1FD80B101280BD0C1
:1006E000F61D26F0070000F1080956E74020E4E770
:1006F0008020D8E70020D6E706F104094DE7284618
:1007000052E7206ABDE8F09FA42701000B4910B50D
:10071000A1F17C020A4CC2E93712372106E000EB56
:10072000104342F82130074B00FB03400B1EA1F1A0
:100730000101F4DC10BD0120E8E700005C18012095
:10074000E119D666CD0D0100401ECAB210F8011F96
:100750008A4202D00029F9D10020704740EA010303
:1007600010B59B070FD1042A0DD310C808C9121F5A
:100770009C42F8D020BA19BA884201D9012010BD94
:100780004FF0FF3010BD1AB1D30703D0521C07E061
:10079000002010BD10F8013B11F8014B1B1B07D1C5
:1007A00010F8013B11F8014B1B1B01D1921EF1D136
:1007B000184610BD40EA0103024630B59B0710D130
:1007C0004FF0013400E008C208C91D1B9D4315EA23
:1007D000C41FF8D013F0FF0102F8011B0DD01B0A53
:1007E000F8E711F8013B002B02F8013B05D011F8A6
:1007F000013B002B02F8013BF3D130BD10B5431C87
:1008000002E010F8011B71B18107FAD14FF00132FB
:1008100002C88C1A8C4314EAC211F9D0C01A0A0615
:1008200003D0C01E10BDC01A10BD0A0401D0801E26
:1008300010BD0902FCD0401E10BD421E12F8013F3F
:10084000002BFBD111F8013B002B02F8013BF9D141
:100850007047032A40F2308010F0030C00F015803E
:1008600011F8013BBCF1020F624498BF11F801CBB3
:1008700000F8013B38BF11F8013BA2F1040298BF18
:1008800000F801CB38BF00F8013B11F0030300F082
:100890002580083AC0F0088051F8043B083A51F826
:1008A00004CBA0E80810F5E7121D5CBF51F8043B2B
:1008B00040F8043BAFF30080D20724BF11F8013B9E
:1008C00011F801CB48BF11F8012B24BF00F8013B00
:1008D00000F801CB48BF00F8012B704710B5203A53
:1008E000C0F00B80B1E81850203AA0E81850B1E8E9
:1008F0001850A0E81850BFF4F5AF5FEA027C24BF9F
:10090000B1E81850A0E8185044BF18C918C0BDE895
:1009100010405FEA827C24BF51F8043B40F8043B5E
:1009200008BF7047D20728BF31F8023B48BF11F813
:10093000012B28BF20F8023B48BF00F8012B70476D
:1009400002F0FF0343EA032242EA024200F002B847
:100950004FF000020429C0F0128010F0030C00F0E8
:100960001B80CCF1040CBCF1020F18BF00F8012B66
:10097000A8BF20F8022BA1EB0C0100F00DB85FEA34
:10098000C17C24BF00F8012B00F8012B48BF00F800
:10099000012B70474FF0000200B51346944696466F
:1009A000203922BFA0E80C50A0E80C50B1F1200182
:1009B000BFF4F7AF090728BFA0E80C5048BF0CC030
:1009C0005DF804EB890028BF40F8042B08BF70478E
:1009D00048BF20F8022B11F0804F18BF00F8012B00
:1009E000704700004FF0013C50F8042B51F8043BD5
:1009F0009A4221D1A2EB0C03934313EACC1317D1F3
:100A000050F8042B51F8043B9A4215D1A2EB0C0389
:100A1000934313EACC130BD150F8042B51F8043B49
:100A20009A4209D1A2EB0C03934313EACC13DBD017
:100A30004FF00000704700BFD01A01BAB1FA81F13F
:100A400001F0180122FA01F0CB40C1F12001DBB224
:100A5000C0B2C01A2CFA01F3D11A914311EAC311A2
:100A6000E6D1704770477047704770472DE9F047EF
:100A70000D4699469246044600F12408016888060E
:100A800004D5E06921F01001216000E00120A842B6
:100A900001DD471B00E00027A1697A1902EB09007C
:100AA000081AA0612078C00602D42046FFF7B2FCE5
:100AB000002608E0D4E901211AF806009047206AD0
:100AC000401C761C20624E45F4DB2078C0060AD517
:100AD0002046FFF79FFC06E0D4E901213020904733
:100AE000206A401C2062381EA7F10107F4DC07E0F1
:100AF000D4E9012118F805009047206A401C2062C3
:100B0000281EA5F10105F3DC2046FFF799FC2078AB
:100B1000000602D50220BDE8F0870120FBE710B5F2
:100B2000436913B1AFF3008001E0FFF79AFC0120A5
:100B300010BD127800F124010A7000224A700122CF
:100B4000EDE711684FF0FF32E9E70000074B70B5A1
:100B50000D467B4400F011F80446284600F020F8CA
:100B600010B14FF0FF3070BD204670BD8F590000AE
:100B700001694A1C02610878704700B58FB0CDE961
:100B800001310021059105497944CDE90310114651
:100B90006846FFF7F7FC0FB000BD0000E5FFFFFF60
:100BA000007B00F080007047754600F029F8AE46E3
:100BB00005006946534620F00700854618B020B569
:100BC000FFF792FBBDE820404FF000064FF0000712
:100BD0004FF000084FF0000B21F00701AC46ACE8E5
:100BE000C009ACE8C009ACE8C009ACE8C0098D4652
:100BF00070470446AFF300802046FFF741FB00003A
:100C000000487047C4180120FEE70000054AC0EB09
:100C1000001002EB001050F8210008B100207047CE
:100C2000012070471803002030B41A481B4C1B49A0
:100C30000068194D194B603CB839A84202D9164AD0
:100C4000543A03E0984203D9134A583A126804E030
:100C5000A04201D94A6800E00A6812F0200F16D0BD
:100C60002022A84202D90C484C3803E0984203D90C
:100C700009485038026004E0A04201D9CA6000E08F
:100C80008A6007480068002801D030BC004730BCAB
:100C900070470000E86A002058640240B8600240D3
:100CA000800100207047000070B511480124A0F5B4
:100CB000E253D0E90012C1EB011103EB011102264E
:100CC00041F822404FF46152214612580CE000BF17
:100CD00050F8314000EBC105C4EB04146D6803EB20
:100CE0000414491C44F825608A42F1DC70BD000000
:100CF000581F002010B5012000F034FA01490120EE
:100D0000086010BD143C014010B5042000F02AFA20
:100D100001490420086010BD143C014010B50820B2
:100D200000F020FA01490820086010BD143C014081
:100D300010B5102000F016FA01491020086010BD0F
:100D4000143C01402DE9F0473B4D0027A5F5E25644
:100D500028686968C0EB001006EB0010374C50F8AB
:100D600021004FF00109401C23D1C4F80C90A06968
:100D700008B103F0E1FDA068DFF8C480401CA0606A
:100D8000206A401C2062042806D16069022803D032
:100D900027620CF0C9FA01E00CF09CFAD8F80000C8
:100DA000476228686968C0EB001006EB001040F845
:100DB000217028686968C0EB001006EB001050F83D
:100DC0002100C01C12D1C4F80C90A06908B103F036
:100DD000B3FDA068801CA0600CF07CFA28686968EC
:100DE000C0EB001006EB001040F82170606902288B
:100DF0001FD128686968C0EB001006EB001050F89E
:100E00002100801C15D1401EE060A06908B103F0EC
:100E100093FDA068401EA060E069401CE0610CF0FA
:100E20002FFA28686968C0EB001006EB001040F844
:100E30002170BDE8F0870000581F00203801002015
:100E4000A057002070B5B3F5804F05D06FF070410A
:100E500040F82210002070BD50F82240084B8E89C7
:100E60001C40D1E9003543EA05138D6889692D02DC
:100E700045EA06452B430B43234340F82230E9E77C
:100E80000000F0CFF0B50C6850F82430114A134040
:100E9000D1E90125D1E903672A433E4332434E6934
:100EA00032438E693243CE6932430E6A32434E6A10
:100EB00032438E6A3243CE6A3243CE6B096B324381
:100EC0000A431A43082D01D142F0400240F8242081
:100ED0000020F0BD8000F0FF30B500EB82025068CA
:100EE0008D8900F04043D1E9000440EA04108C6889
:100EF000240244EA054420430C8A074D05EB0454C0
:100F000020430C7D6D0105EB04648969204308438F
:100F100018435060002030BD0000F0FF2DE9F04183
:100F20001D4F0025C5EB0510002407EB001600BF80
:100F300056F82400C01C062825D2DFE800F01E1950
:100F40001403080DA1B2A8B20BF02BFF1BE0214641
:100F5000284606F0B3FB16E01048214602882846D2
:100F600003F056F80FE02146284605F0B5FA0AE0EE
:100F7000A1B2A8B24FF61F0203E0A1B2A8B24FF48B
:100F8000FC620BF0CFFE641C3C2CD1DB6D1C1E2DD3
:100F9000C8DBBDE8F0810000180300203801002004
:100FA00010B50021084C0A46C1EB0113002004EBE8
:100FB000031300BF43F82020401C3C28FADB491CE7
:100FC0001E29F1DB10BD0000180300202DE9F041BF
:100FD0000446876D00F0E0F9064694F835000025D8
:100FE000022806D08020606584F834500120BDE8D6
:100FF000F0812068016821F01601016020684169D4
:1010000021F080014161206C08B9A06C20B12068FA
:10101000016821F0080101602068016821F00101E8
:1010200001600BE000F0B8F9801B052806D92020EC
:10103000606504F8345F03206070D8E720680068BA
:10104000C007EFD194F85C103F208840B86004F8E6
:10105000345F012060700020C9E790F83510022944
:1010600003D08021416501207047052180F83510AB
:101070000068016821F0010101600020704780B222
:1010800003F03ABC2DE9F0478046142003F034FC0D
:10109000304D314C4FF001094FF0030AB8F1010F08
:1010A0004AD000262D480227B8F1040F38D0B8F1F5
:1010B000080F1CD0B8F1100F10D1102100F054F916
:1010C00000280BD1686902280AD1E869032807DBE8
:1010D000D4F84408002801D0C4F84478BDE8F0876B
:1010E000D4F844080228F9D0C4F84468F6E7082187
:1010F00000F03AF90028F1D16869022809D1E869BD
:10110000032806DBD4F844080128E7D0C4F844A833
:10111000E4E7D4F844080328E0D0C4F84498DDE7B5
:10112000042100F021F90028D8D168690228CFD124
:10113000E8690328D4DACBE70121094800F014F963
:101140000128CBD168690228DCD1E8690328E0DAFC
:10115000D8E7000038010020584F0020001002405E
:1011600000000240044910B50A68024202D008603B
:10117000FFF788FF10BD0000143C01402DE9F84F37
:10118000DFF8B8A1002201250AF1040B03264FF075
:101190000F090BF1040E00BF0B6805FA02F423409F
:1011A000A3426FD10F7907F00307012F01D0022F5F
:1011B00016D187684FEA420806FA08FC27EA0C07AE
:1011C000D1F80CC00CFA08FC4CEA070CC0F808C0B7
:1011D0004768A7430C79C4F3001494403C4344602F
:1011E0000C79E443A4070AD0C4684FEA420C06FA1B
:1011F0000CF7BC438F6807FA0CF72743C7600C79DC
:1012000004F00304022C12D1D40800EB840CDCF8A7
:1012100020405707FF0E09FA07F824EA0804D1F81E
:10122000108008FA07F848EA0408CCF8208004681F
:101230004FEA420C06FA0CF7BC430F7907F003079C
:1012400007FA0CF7274307604C68E40070D53C4C64
:10125000276847F480472760246822F0030704F4D6
:1012600080440094374C07EB040CDCF808489707DF
:101270004FEA177809FA08F7BC43334FB84202D156
:10128000002724E054E0314FB84201D101271EE08D
:101290002F4FB84201D1022719E02E4FB84201D199
:1012A000032714E02C4FB84201D104270FE02B4F45
:1012B000B84201D105270AE0294FB84201D10627DB
:1012C00005E0284FB84201D1072700E0082707FAB8
:1012D00008F72743CCF80878DAF800405746D1F8E9
:1012E00004C09C435FEACC3C00D51C433C60DBF867
:1012F00000405F46D1F804C09C435FEA8C3C00D5B7
:101300001C433C60DEF800407746D1F804C09C43A3
:101310005FEACC2C00D51C433C60084F0C373C687E
:10132000D1F804C09C435FEA8C2C00D51C433C6080
:10133000521C102AFFF430AFBDE8F88F003C01408A
:1013400044380240003001400000024000040240E6
:1013500000080240000C024000100240001402404D
:1013600000180240001C02400069084000D0012023
:101370007047426921EA02030A4043EA024181615F
:1013800070470AB1816170470904FBE701480068B2
:10139000000C7047002004E001488068704700009E
:1013A0006C01002002488168027811448160704716
:1013B0006C010020094810B5016841F4007101601A
:1013C000016841F480610160052000F057F80F20AA
:1013D00000F006F800F024F8002010BD003C0240A8
:1013E00070B50D4D04464FF47A712878B1FBF0F0DA
:1013F0000A490968B1FBF0F001F042F948B9102C34
:1014000007D200222146501E00F018F800206C6020
:1014100070BD012070BD00006C010020340100206F
:101420007047002809DB00F01F02012191404009AC
:10143000800000F1E020C0F800117047F0B40E4BBE
:101440001B680C46C3F30223C3F10705042D00D922
:101450000425191D072901D2002300E0DB1E012607
:1014600006FA05F1491E214099409E40761E16401D
:101470003143F0BC02F05BBC0CED00E0064900F02B
:10148000070208684FF6FF03184040EA0220034AAB
:1014900010430860704700000CED00E00000FA0502
:1014A0002DE9F0470E46050065D0DFF81481D8F825
:1014B0000000F7B200F00700B04207D288F80070D1
:1014C000D8F8000000F00700B04254D128683D4C25
:1014D000810712D5400703D5206840F4E050206012
:1014E0002878000703D5206840F460402060206819
:1014F000A96820F0F000084320602878C0072DD0AC
:10150000304968680839012812D0022813D003280E
:1015100011D00968890700292DDA216821F003011B
:1015200001432160FFF738FF814641F2883A0EE01F
:1015300009688903EFE709688901ECE7FFF72CFFE9
:10154000A0EB0901514502D90320BDE8F0872068CE
:10155000696800F00C00B0EB810FEFD1D8F80010F3
:10156000404601F00701B14207D90770006800F05A
:101570000700B04201D00120E7E72878400705D5F1
:101580002068E96820F4E0500843206028780007CC
:1015900006D52068296920F4604040EAC100206037
:1015A00000F038F82168084AC1F30311515CC840C3
:1015B0000649086006480068FFF712FF0020C4E7EC
:1015C000003C0240083802408EF40008340100203C
:1015D000700100200448054900680968044AC1F305
:1015E0008221515CC8407047340100200838024015
:1015F0009EF400080448054900680968044AC1F3DC
:101600004231515CC8407047340100200838024024
:101610009EF40008154810B5006810F00C0214483C
:1016200013D04110042A0FD0082A0ED10F4C241FCA
:101630002268236802F03F025B0207D52068C0F3EE
:101640008810A0FB010106E0084610BD2168C1F327
:101650008811A1FB00010023FEF759FE2168C1F3A8
:101660000141491C4900B0FBF1F010BD08380240AF
:101670000024F4002DE9F84F04006ED02078DFF844
:101680004C93C007A9F104054AD009F10400016890
:10169000C1F38101012908D00068C0F3810002284C
:1016A0000AD1D9F80000400206D52868800337D552
:1016B00060680028E1D033E06068B0F5803F10D06A
:1016C000B0F5A02F286810D020F48030286028685A
:1016D00020F4802028606068A8B1FFF75DFE064610
:1016E0000DE0286840F48030F4E740F48020286062
:1016F000F7E700BFFFF750FE801B642873D8286807
:101700008003F7D50CE0FFF747FE064605E000BF73
:10171000FFF742FE801B6428F0D828688003F7D4C6
:101720002078DFF8AC8280074FF0000A3ED5A7484A
:10173000001D016811F00C0F08D00068C0F3810093
:1017400002280BD1D9F80000400207D4286880078E
:1017500016D5E068012800D112E033E1E068B8B1A5
:101760000120C8F80000FFF717FE064605E000BF9D
:10177000FFF712FE801B0228C0D828688007F7D523
:101780002868216920F0F80040EAC10028600DE0D7
:10179000C8F800A0FFF700FE064604E0FFF7FCFDD6
:1017A000801B02281FD828688007F7D420780007FC
:1017B00022D5864F87486169703771B10121016078
:1017C000FFF7EAFD064604E0FFF7E6FD801B02286E
:1017D00009D838688007F7D50EE0C0F800A0FFF7F9
:1017E000DBFD064605E082E0FFF7D6FD801B022800
:1017F0007DD838688007F7D42078400768D5DFF8AF
:10180000CCB100270BF13C0BDBF80000C0000BD47F
:10181000DBF8001041F08051CBF80010DBF800003D
:10182000012700F0805000906B4E3068C00510D446
:10183000306840F480703060FFF7AEFD009005E046
:10184000FFF7AAFD0099401A022850D83068C00559
:10185000F6D55E4EA0686C3601280FD0052830689A
:1018600010D020F001003060306820F004003060BB
:10187000A068B8B1FFF790FD00900FE0306840F02D
:101880000100F4E740F004003060F7E7FFF784FD63
:101890000099411A41F28830814266D83068800749
:1018A000F4D50EE0FFF778FD009007E0FFF774FD38
:1018B0000099411A41F28830814256D83068800739
:1018C000F4D42FB1DBF8001021F08051CBF80010D8
:1018D000A069C8B33D49091D0968C1F38101022906
:1018E0004AD00228504607D0C8F8600000E03CE02B
:1018F000FFF752FD04463BE04746C8F86000FFF79B
:101900004BFD064605E000BFFFF746FD801B0228A1
:101910002BD828688001F7D4D4E907010843A16ACD
:101920002E4A490802EB0141626A41EA82110843EA
:1019300094F82C1040EA0161C9F8001001203866C3
:10194000FFF72AFD044606E03EE000BFFFF724FD56
:10195000001B022809D828688001F7D534E000BFB1
:10196000FFF71AFD001B022802D90320BDE8F88FFB
:1019700028688001F4D427E00128F7D0D9F80000C6
:10198000E26900F4800191421CD1226A00F03F011B
:10199000914217D147F6C071626A0140B1EB821FD4
:1019A00010D1A26A4FF0FF3300F4403103EB520232
:1019B000B1EB024F06D194F82C1000F07060B0EB40
:1019C000016F01D00120D1E70020CFE704380240A9
:1019D00000004742800E4742007000400000FFFFB9
:1019E0002DE9FE430446002603200D4684F834000A
:1019F000606C03285ED0B5F5805F5BD04FF4006764
:101A000000204FF08068BD421FD1814600900190B8
:101A10000021206801F034FA800113D46946204681
:101A200001F054FD07000DD10198400334D5B4F8FE
:101A300050000104206801F058FA070002D1022189
:101A4000206823E0A06B384328E01DB1A06B40F074
:101A5000006023E08146009001900021206801F0A1
:101A60000FFA8001EED46946204601F02FFD0700F1
:101A7000E8D10198C0030FD5B4F8500001042068E4
:101A800001F033FA0700DDD10021206801F079FA76
:101A90000700D7D14F46D5E74746D3E7A063A06BF1
:101AA000144F4FF0010848B12068876384F83480F0
:101AB00001260EE0A06B40F08050EFE7211DD4E935
:101AC000050C0EC9CDE90050CDF808C0206801F022
:101AD000DAF94FF40071206801F03AFA28B1216870
:101AE0008F63A16B0143A163012684F834803046E3
:101AF000BDE8FE83FF054000F0B5426E920F0A700C
:101B0000426EC2F383624A70426EC2F301628A700F
:101B1000426E120CCA70B0F86420120A0A7190F872
:101B200064204A71826E120DCA80826EC2F3034233
:101B30000A72B0F86820C2F3C0324A72B0F8682066
:101B4000C2F380328A72B0F86820C2F34032CA729F
:101B5000B0F86820C2F300320A7300264E73426C5C
:101B60004FF40075012462B1012A3AD00268474956
:101B70009163816B41F08051816380F83440012092
:101B8000F0BDB0F86820C36E9205120D42EA937260
:101B90000A61C26EC2F3C2620A75C26EC2F3026209
:101BA0004A75C26EC2F342528A75C26EC2F3824255
:101BB000CA75C26EC2F3C2320A760A69521C426505
:101BC0000B7E03F007039B1C9A4042650B7A03F0DF
:101BD0000F0704FA07F383655B0A5A43C0E9172528
:101BE0000EE090F86820C36E9206920A42EA134211
:101BF0000A610A69521C92024265C0E916520566E2
:101C000030F86C2FC2F3803201F8192F0288C2F32A
:101C1000C6124A70027802F07F028A704268D20FC0
:101C2000CA704268C2F341720A714268C2F38262AA
:101C30004A714268C2F383528A714268C2F34052C9
:101C4000CA710E724268C2F300424A728288C2F3BD
:101C5000C0328A728288C2F38032CA728288C2F32A
:101C600040320A738288C2F300324A738288C2F318
:101C700081228A738288C2F30122CA730079C0F379
:101C8000460008744C740020F0BD0000FF054000C1
:101C9000426C0A60826C4A60C26C8A60026DCA60E3
:101CA000426D0A61826D4A61C26D8A61006EC861CF
:101CB0000020704770B50446B0F8500000250104BC
:101CC000206801F068FA18B1A16B0143A16304E038
:101CD0000021206801F0D4F80546C5F3432070BD0B
:101CE00070B504000ED094F83400002518B925779B
:101CF000204600F04BF8032084F83400204600F022
:101D00000BF808B1012070BDA5632563012084F89C
:101D10003400002070BD0000FEB50025044676208A
:101D20000095CDE9015029460B460A46206801F08E
:101D3000AAF828BB134E46F8A05F206801F0B5F85A
:101D400001253560204601F0A5FC28B184F8345007
:101D5000A16B0143A16313E0204601F024FC00289D
:101D6000F4D14FF40071206801F0F2F8002808D097
:101D7000226805499163A16B0143A16384F8345043
:101D80000120FEBD00802542FF054000354810B50A
:101D9000016886B041F400610160006800F40060F1
:101DA000059030481438016841F004010160016871
:101DB00001F004010591016841F00401016001682E
:101DC00001F004010591016841F00401016001681E
:101DD00001F004010591016841F00401016001680E
:101DE00001F004010591016841F0040101600168FE
:101DF00001F004010591016841F0080101600068EB
:101E0000012100F0080005904FF48070009002203E
:101E1000CDE9010103900C20134C04906946204643
:101E2000FFF7ACF96015009069462046FFF7A6F968
:101E30002015009069462046FFF7A0F9E0140090B5
:101E400069462046FFF79AF9A0140090694620469B
:101E5000FFF794F90420009069460448FFF78EF9D3
:101E600006B010BD4438024000080240000C024099
:101E70002DE9F04F87B09B4616460D460446FFF706
:101E80008BFA00903DB194F83400012807D0A06B84
:101E900040F000500DE0A06B40F0006009E0002031
:101EA000A063E26D06EB0B01914204D9A06B40F0F8
:101EB0000070A06386E0032184F834102168C862B2
:101EC000616C012900D076024FF0FF3101914FEA99
:101ED0004B2102914FF0010803AA9021022781466D
:101EE000CDF8188082E8820201A9206800F0B2FFD4
:101EF000BBF1010F05D927633146206801F0BCF81A
:101F000005E0C4F830803146206801F0CEF8DFF8F3
:101F100034A130B12268C2F838A0A16B0143A1639B
:101F20004CE0029E1EE0406B000413D596B10027E2
:101F3000206800F0C2FF05F8010B010A05F8011B3B
:101F4000010C05F8021B000E361F7F1C05F8010C62
:101F5000082FEDD3FFF720FA0099411A109881421B
:101F60001DD2E0B12068426B40F22A310A42DAD039
:101F7000416BC90509D5BBF1010F06D9616C032975
:101F800003D001F039F90028C4D12068416B09075A
:101F90001AD5C0F838A0A06B40F0080050E02168C6
:101FA000C1F838A0A06B40F00040A06384F83480F2
:101FB000C4F83090032007B0BDE8F08F84F8348077
:101FC000C4F830900120F6E7416B890705D5C0F8C9
:101FD00038A0A06B40F0020032E0416B89061BD5AF
:101FE000C0F838A0A06B40F0200029E000F065FFA9
:101FF00005F8010B010A05F8011B010C05F8021B8D
:10200000000E05F8010C361FFFF7C6F90099411ABA
:10201000109881420ED268B12068416B890201D5C7
:10202000002EE3D1216840F23A50886384F834806E
:102030000020C0E72168C1F838A0A06B40F0004044
:10204000A063BBE7FF0540002DE9F04F8DB09B4634
:1020500016460D460446FFF79FF90A903DB194F8E5
:102060003400012807D0A06B40F000500DE0A06BB9
:1020700040F0006009E00020A063E26D06EB0B0178
:10208000914204D9A06B40F00070A0637AE0032174
:1020900084F834102168C862616C012900D076028E
:1020A0004FF0FF3103914FEA4B2104919021CDE98C
:1020B00005104FF00109CDE90709824603A9206800
:1020C00000F0C8FEBBF1010F06D920202063314685
:1020D000206801F0ABF805E010202063314620684D
:1020E00001F0BDF85FEA000806D021684048886327
:1020F000A06B40EA080071E0049E27E0406B4004BA
:102100001CD5DEB15FF0000715F8010B009015F843
:10211000011B361F40EA0120009015F8021B40EA1F
:102120000140009015F8011C40EA016000906946EA
:10213000206800F0D5FE7F1C082FE5D3FFF72CF9AF
:102140000A99411A1698814220D2F8B12068416B51
:1021500040F21A321142D1D0416BC90523D5BBF1EF
:10216000010F20D9616C03291DD001F045F8D0B1D1
:1021700022681F499163A16B0143A16384F83490E5
:10218000C4F830A001200DB0BDE8F08F21681848D8
:102190008863A06B40EA0800A06384F83490C4F818
:1021A00030A00320EFE72068416B090705D51049EF
:1021B0008163A06B40F0080010E0416B890705D5F2
:1021C0000B498163A06B40F0020007E0416BC90638
:1021D00006D507498163A06B40F01000A063CDE7EE
:1021E00040F23A51816384F834900020CBE700003C
:1021F000FF05400070B5040008D0606A002538B1C2
:102200002561656194F8510040B10CE0012070BD7A
:102210006068B0F5827FF5D0E561F3E784F850504F
:10222000204600F04DF8022084F851002068016833
:1022300021F040010160A088218900F4827001F43E
:1022400004410843A18901F400610843217C01F0A5
:1022500002010843217D01F001010843218B01F4B3
:1022600000710843217F01F03801084394F82010E1
:1022700001F080010843218D01F4005108432168D9
:102280000860A069042101EA104094F8241001F0CC
:102290001001084321684860A06AB0F5005F03D1CF
:1022A000A08D216880B208612068C16921F40061B5
:1022B000C1616565012084F85100002070BD0000F7
:1022C00010B500681C4986B0884232D11B480168AD
:1022D00041F002010160016801F00201059101680D
:1022E00041F002010160016801F0020105910168FD
:1022F00041F0020101600068012100F00200059038
:10230000082000900220CDE90101039005200C4C2B
:10231000049069462046FEF731FF10200090694680
:102320002046FEF72BFF2020009069462046FEF74E
:1023300025FF06B010BD00000030014030380240DB
:10234000000402402DE9FF4F81B04FF0000A04461F
:10235000CDF800A090F850000E9F1D4693464FF018
:102360000109564601280ED0012084F85000FFF7DD
:1023700013F8804694F85100616801280DD0B1F53A
:10238000827F08D103E0022005B0BDE8F08FA1688C
:1023900009B9042801D0022606E10298C0B3BBF1B6
:1023A000000F36D0A5B394F85100042802D00520C0
:1023B00084F85100C4F854A0C4F838B0E587A58764
:1023C00002992163E586A586C4F840A0C4F844A01C
:1023D000A06A4FF4005B584509D12068016821F4D8
:1023E000005101602068016841F4005101602068DB
:1023F0000168490603D4016841F040010160E068CA
:10240000B0F5006F606806D0F0B3012D51D094E0B4
:10241000FFE70126C8E008B1012D43D1206B2168F8
:102420000088C860206B801C2063E08E401EE08620
:1024300038E020688168890719D5E18EB9B1B9F112
:10244000010F14D1216B0988C160206B801C2063AF
:10245000E08E401EE086E08E4FF0000938B9A06A99
:10246000584504D12068016841F48051016020681A
:102470008168C9070ED0E18F61B1C068A16B088087
:10248000A06B801CA06300E013E0E08F401EE0879B
:102490004FF00109FEF780FFA0EB0800B84201D31E
:1024A000781C60D1E08E0028C3D1E08F0028C0D115
:1024B00049E0206B216800780873206B401C206382
:1024C000E08E401EE08638E020688168890719D5D3
:1024D000E18EB9B1B9F1010F14D1216B0978017303
:1024E000206B401C2063E08E401EE086E08E4FF0A3
:1024F000000938B9A06A584504D12068016841F440
:102500008051016020688168C9070CD0E18F51B10A
:10251000C068A16B0870A06B401CA063E08F401ED8
:10252000E0874FF00109FEF737FFA0EB0800B84243
:1025300002D3781C01D016E0AFB1E08E0028C3D1E1
:10254000E08F0028C0D1A06A584511D101223B4636
:1025500011462046CDF8008001F022F928B1606DC7
:1025600040F00200606503261EE02068C06800900D
:1025700020688168C90607D5616D41F00201616577
:102580004FF6EF718160012642463946204601F040
:10259000DBF818B101262020606505E0A06818B9B5
:1025A0002068C16880680090012084F8510084F898
:1025B00050A03046E8E670B515460E46040003D03C
:1025C00094F8490010B107E0012070BD002084F8A4
:1025D0004800204600F01AF804F108012068FEF7D0
:1025E00051FC3146A2682068FEF776FCD4E901026E
:1025F0002946236BFEF726FCA168206850F82120AD
:1026000042F0010240F82120002070BD194800B5B9
:10261000016887B041F001010160006800F001002D
:10262000059014480838016841F00801016001680C
:1026300001F008010591016841F010010160006896
:10264000012100F0100005904CF203700090022070
:10265000CDE9010103900C20049069460648FEF77D
:102660008DFD4FF68070009069460448FEF786FDA8
:1026700007B000BD38380240000C02400010024094
:1026800010B5401EB0F1807F01D3012010BD4FF086
:10269000E02460610F21601701F049FB0020A06178
:1026A00007202061002010BD10B5040003D094F86D
:1026B0003D0010B107E0012010BD002084F83C006F
:1026C000204600F01EF8022084F83D00211D2068FD
:1026D00001F040F9012084F8460084F83E0084F8B7
:1026E0003F0084F8400084F8410084F8420084F8F8
:1026F000430084F8440084F8450084F83D0000203D
:1027000010BD704790F83D10012901D0012070479D
:10271000022180F83D100168CA6842F00102CA60D7
:1027200000681149884214D0B0F1804F11D00F4990
:1027300088420ED00E4988420BD00E49884208D0FC
:102740000D49884205D00D49884202D00C49884283
:1027500004D1816801F00701062903D0016841F026
:1027600001010160002070470000014000040040AA
:1027700000080040000C00400004014000400140FF
:10278000001800402DE9F041054690F83C000C4649
:10279000012836D0012085F83C008AB3042A42D0B3
:1027A0002868082A51D0D4E90023E168066A26F493
:1027B00080560662C669076A26F4407646EA032315
:1027C0004FF6FF7606EA013123F4704319434FF4C4
:1027D000204627F4204306EA02321A43C16102620E
:1027E0002868C16921F44061C1612868C169A26893
:1027F00041EA0221C161002085F83C00BDE8F0817A
:1028000001E00220FAE7D4E90012E368286801F049
:1028100013F92868816921F00C01816128688169B8
:10282000A26811430FE0D4E90012E368286801F0C0
:1028300043F92868816921F44061816128688169D0
:10284000A26841EA02218161D5E7D4E90027267B0D
:10285000016A21F480710162C169036A21F00301F8
:10286000394321F0F00731074FF4206647EA116140
:1028700023F4206306EA02221A43C1610262286837
:10288000C16921F00C01C1612868C169A2681143C6
:10289000B0E710B5040003D094F83D0010B107E094
:1028A000012010BD002084F83C00204600F01EF8F6
:1028B000022084F83D00211D206801F04BF8012022
:1028C00084F8460084F83E0084F83F0084F8400015
:1028D00084F8410084F8420084F8430084F84400FE
:1028E00084F8450084F83D00002010BD70470000CA
:1028F00010B5044651B104290DD0082910D094F820
:10290000410094F84520012811D10EE094F83E00D2
:1029100094F84220F7E794F83F0094F84320F2E758
:1029200094F8400094F84420EDE7012A01D00120FA
:1029300010BD022079B3042933D0082936D084F899
:10294000410084F845000122206801F067F81A4927
:102950002068884214D0B0F1804F11D017498842C6
:102960000ED0174988420BD01649884208D0164924
:10297000884205D01549884202D01549884204D1C1
:10298000816801F00701062903D0016841F00101C7
:102990000160002010BDFFE784F83E0084F842008B
:1029A000D1E784F83F0084F84300CCE784F8400086
:1029B00084F84400C7E70000000001400004004024
:1029C00000080040000C00400004014000400140AD
:1029D0000018004070477047F8B502680446106858
:1029E000D168536910F00F0F4FF0000554D003F079
:1029F000010601F4907737435FD0C20705D0CA05BE
:102A000003D5226C42F001022264420705D5DA07A1
:102A100003D0226C42F002022264820705D5DA0755
:102A200003D0226C42F004022264020707D501F0B1
:102A30002002324303D0226C42F008022264226C4E
:102A4000002A35D0800604D5880602D5204601F03C
:102A50006EF820684069216CC0F3801001F0080115
:102A60000143204625D001F04AF820684169490613
:102A70001BD5416921F040014161A06BA8B15949C2
:102A80000165A06BFEF7E9FA002811D0A06B016D7B
:102A900001B0BDE8F040084783060ED58B060CD583
:102AA0002046BDE8F84001F042B82046FFF793FF0A
:102AB000F8BDFFF790FF2564F8BD266B2023012E9B
:102AC00053D1C60651D5CE064FD510685068009038
:102AD000506940062BD5A16B086840680004000CC3
:102AE000EAD0A68D8642E7D9E085C869B0F5807F37
:102AF00018D0D06820F48070D0602068416921F03F
:102B0000010141612068416921F04001416184F87F
:102B10003E3025632068C16821F01001C160A06BC0
:102B2000FEF754FAA08DE18D401A81B219E0A08D14
:102B3000E18D401A81B2E08D0028BDD00029BBD0C4
:102B4000D06820F49070D0602068426922F00102C1
:102B5000426184F83E3025632068C26822F010028A
:102B6000C2602046FFF736FFF8BD05062BD50D06DF
:102B700029D594F83D002128F6D1A068B0F5805FF2
:102B800001D12069B0B1206A411C2162216800781E
:102B90004860E08C401E0004000CE084E4D1206812
:102BA000C16821F08001C1602068C16841F0400126
:102BB000C160F8BD206A0088C0F308005060206A38
:102BC000801C2062E5E74006F3D54806F1D5D168C0
:102BD000204621F04001D16084F83D3000F0C8F873
:102BE000F8BD0000EF3A000870B5040004D094F876
:102BF0003D00002510B106E0012070BD84F83C5076
:102C0000204600F023F8242084F83D002068C168A5
:102C100021F40051C160204600F0E0FF2068016906
:102C200021F4904101612068416921F02A0141614C
:102C30002068C16841F40051C1602564202084F8F7
:102C40003D0084F83E00002070BD000030B50068F3
:102C50001F4987B0884238D11E48016841F01001F1
:102C60000160006800F0100005901A4814380168EF
:102C700041F001010160016801F001010591016865
:102C800041F0010101600068012100F001000590A0
:102C90004FF4007000900220CDE901010724CDE936
:102CA00003040D4D69462846FEF768FA2815009082
:102CB000694604942846FEF761FA2520FEF7B1FB29
:102CC000032211462520FEF7B9FB07B030BD0000F6
:102CD00000100140443802400000024090F83E30AD
:102CE000202B0ED159B152B190F83C30012B08D0B5
:102CF000012380F83C300023036300F0F5BF01207E
:102D0000704702207047000030B4006815498842BF
:102D100025D1154841880A0416D402464C0412787D
:102D20004FF0000304D50A2A0DD141F4004114E00C
:102D30000D2A10D0C1F30D040C4D491C89B22A553F
:102D40004180C72900D943800848012230BC064988
:102D5000C830FFF7C3BF41F480414180F4E730BC85
:102D6000704700000010014064010020E857002077
:102D70007047FEE7FEE70000F0B533490022A1F5F9
:102D80004050D1F8404800EBC40353F8085DC5EB50
:102D90000516A0F5E2555B6805EB061646F82320FC
:102DA0002A4BDE68012E03D1641CC1F84048DA606A
:102DB000DC68641C10D1D1F8404800EBC406641EE6
:102DC00056F8107DC7EB0717766805EB071545F831
:102DD0002620C1F84048DA605B6983B90368002B9C
:102DE00002DA1D23036002E01D2B00DD0260436850
:102DF000002B01DA3B2201E03B2B00DD4260D1F8E1
:102E0000402807E000EBC20353F8084D40F8324079
:102E10005C68DC60521E002AF4DCD1F8441849B129
:102E200001290AD002290BD0032902D14168491E89
:102E30004160F0BD0168491C04E04168491CF7E7A6
:102E40000168491E0160F0BD584F00203801002084
:102E5000704770470A6842624A688262D1E9022379
:102E60001A43D1E904310B43C16A1A4321F0F70137
:102E70001143C16200207047006800F003007047F2
:102E800008444069704770B50DF1100C11439CE87F
:102E900070002343194329434268314347F6FF63D7
:102EA0009A430A434260002070BD10B503210160BF
:102EB0000220FEF7E4F8002010BDD0F88000704733
:102EC0000A688260D1E901231A43D1E903310B4337
:102ED000C1681A436FF30B011143C16000207047B2
:102EE0000968C0F880100020704710B586B004460D
:102EF0003720CDE9001040200290002003904FF4CD
:102F00008060049069462046FFF7DAFF41F288327C
:102F10003721204600F0BCF906B010BD10B50446BC
:102F20000A4886B001432920CDE9001040200290D4
:102F3000002003904FF48060049069462046FFF71C
:102F4000BFFF204600F05CFA06B010BD0000108004
:102F500010B586B004461020CDE900104020029044
:102F6000002003904FF48060049069462046FFF7EC
:102F7000A7FF41F288321021204600F089F906B0FF
:102F800010BD10B586B004460620CDE900104020E3
:102F90000290002003904FF4806004906946204620
:102FA000FFF78EFF41F288320621204600F070F9CB
:102FB00006B010BD30B585B00024054600940194DC
:102FC0004FF480600294CDE9034069462846FFF73C
:102FD00077FF0B484FF4FA510068B0FBF1F041F273
:102FE00088314843401E03D24FF0004005B030BD49
:102FF000696B0906F6D5C520A8632046F6E70000F0
:103000003401002070B585B004464FF4D5700090AF
:1030100001A908204025002681E86100C001049034
:1030200069462046FFF74CFF12484FF4FA510068FA
:10303000B0FBF1F041F288314843401E03D24FF01B
:10304000004005B070BD616B11F0450FF5D009056A
:10305000F3D4606B400701D5042003E0606BC00728
:1030600002D00120A063ECE7606B400600D5A563A9
:103070003046E6E73401002010B586B00446122041
:10308000CDE9001040200290002003904FF48060B2
:10309000049069462046FFF713FF41F2883212215F
:1030A000204600F0F5F806B010BD10B586B0044615
:1030B0001120CDE9001040200290002003904FF431
:1030C0008060049069462046FFF7FAFE41F288329C
:1030D0001121204600F0DCF806B010BD10B586B016
:1030E00004460720CDE900204020029000200390F4
:1030F0004FF48060049069462046FFF7E1FE41F2FC
:1031000088320721204600F0C3F806B010BD10B584
:1031100086B0044600210220CDE90010C020CDE990
:1031200002014FF48060049069462046FFF7C8FE14
:10313000204600F03DF906B010BD10B586B004463B
:103140000920CDE90010C0200290002003904FF428
:103150008060049069462046FFF7B2FE204600F0EA
:1031600027F906B010BD10B586B004460021332003
:10317000CDE900104020CDE902010001049069462C
:103180002046FFF79DFE41F288323321204600F0B1
:103190007FF806B010BD10B586B004460D20CDE90D
:1031A000001040200290002003904FF480600490B3
:1031B00069462046FFF784FE41F288320D21204601
:1031C00000F066F806B010BD30B585B00C46054677
:1031D00000210320CDE900104020CDE902010001CB
:1031E000049069462846FFF76BFE224603212846D5
:1031F00000F028F905B030BD10B586B004460021B6
:103200000C20CDE900104020CDE90201000104901E
:1032100069462046FFF754FE034A0C21204600F081
:1032200037F806B010BD000000E1F50510B586B016
:1032300004461920CDE900104020029000200390A0
:103240004FF48060049069462046FFF739FE41F252
:1032500088321921204600F01BF806B010BD10B5C9
:1032600086B004461820CDE90010402002900020CE
:1032700003904FF48060049069462046FFF720FEDB
:1032800041F288321821204600F002F806B010BD45
:10329000454B10B51B684FF4FA54B3FBF4F353439A
:1032A0005B1E02D24FF0004010BD426B12F0450F82
:1032B000F6D01205F4D4426B520703D50421816382
:1032C000084610BD426BD20702D00121816305E0A0
:1032D000C52282630269D2B28A4201D0012010BDA8
:1032E0000021FFF7CDFD3149084201D1002010BD7A
:1032F000002802DA4FF0007010BD410001D54020D7
:1033000010BD810001D5802010BDC10002D54FF451
:10331000807010BD010102D54FF4007010BD410155
:1033200002D54FF4806010BDC10102D54FF400609A
:1033300010BD010202D54FF4805010BD410202D5EC
:103340004FF4005010BD810202D54FF4804010BDF3
:10335000C10202D54FF4004010BD410302D54FF425
:10336000003010BD810302D54FF4802010BDC10391
:1033700002D54FF4002010BD010402D54FF4801097
:1033800010BD410402D54FF4001010BD810402D5D8
:103390004FF4800010BD000702D54FF4000010BDAF
:1033A0004FF4803010BD00003401002008E0FFFD24
:1033B00012494FF4FA520968B1FBF2F141F2883236
:1033C0005143491E02D24FF000407047426B12F049
:1033D000450FF6D01205F4D4416B490703D50421FB
:1033E000816308467047416BC90703D0012181639F
:1033F00008467047C52181630020704734010020D2
:103400000F494FF4FA520968B1FBF2F141F28832E8
:103410005143491E02D24FF000407047426B12F0F8
:10342000450FF6D01205F4D4416B490703D50421AA
:10343000816308467047C521816300207047000002
:103440003401002030B5204B4FF4FA541B68B3FB15
:10345000F4F341F2883463435B1E02D24FF0004024
:1034600030BD446B14F0450FF6D02405F4D4436B03
:103470005B0703D504218163084630BD436BDB073E
:1034800002D00121816303E00369DBB28B4201D0EA
:10349000012030BDC52181630021FFF7F1FC10F44C
:1034A000604F04D0410406D54FF4005030BD000CED
:1034B0001080002030BD000402D54FF4805030BD94
:1034C0004FF4803030BD0000340100202DE9F0477A
:1034D00088B00D460446FDF75FFF00268246009641
:1034E0000196374608212068FFF732FD002829D1D0
:1034F000B4F8500001042068FFF7F7FC002821D140
:10350000401E4FF00808CDE9020830204FF00209B4
:10351000CDE904090120CDE9067002A92068FFF772
:1035200099FC2068FFF71FFE00280BD16F4620682A
:10353000416B11F02A0F08D0416B09071AD5C0F86A
:103540003880082008B0BDE8F087416B890205D5B6
:10355000FFF7B3FC47F82600761C02E0416B8904B4
:10356000EAD5FDF719FFA0EB0A00401CDFD14FF0B0
:103570000040E7E7416B890703D5C0F83890022087
:10358000E0E7416B890603D5202181630846D9E72E
:1035900040F23A518163019800BA2860009800BA5D
:1035A00068600020CEE710B590B004460120ADF869
:1035B00038002068FFF760FC002854D0606C0328B6
:1035C00042D02068FFF7A3FD00284AD100212068DF
:1035D000FFF756FC606704212068FFF751FCA067E5
:1035E00008212068FFF74CFCE0670C212068FFF7FA
:1035F00047FCC4F88000606C032825D00EA9206821
:10360000FFF7E2FD00282CD1606C03281CD0BDF828
:103610003800206501042068FFF78FFD002820D1C5
:1036200000212068FFF72CFC606604212068FFF76A
:1036300027FCA06608212068FFF722FCE0660C2129
:103640002068FFF71DFC206704212068FFF718FCA5
:10365000000DE06403A92046FEF74EFA30B14FF0AA
:10366000805010B010BD4FF08060FAE7B4F8500001
:10367000002302042068FFF731FD0028F1D104F196
:10368000100007C88DE8070094E80F00FFF7FBFB68
:103690000020E6E72DE9F84F00260446009635465F
:1036A000B0460068FFF786FC002827D12068FFF7A6
:1036B000A9FC4FF0805B4FF001094FF6FF7748B14E
:1036C000A6642068FFF776FC002817D1A06C0128BB
:1036D00002D020E0C4F8489000212068FFF705FCE4
:1036E00058B918E000212068FFF7FFFB002805D13A
:1036F00051462068FFF712FC10B15846BDE8F88F1C
:1037000000212068FFF7BCFB05464FEAD0780098FF
:10371000401C009002E0DFF82CA00098B84202D2D2
:10372000B8F1000FDED00098B84202D34FF080709D
:10373000E4E7680002D5C4F8449000E06664002025
:10374000DCE70000000010C138B504461248134BF6
:103750000068B0FBF3F04FF47A7358430090606850
:10376000B0F5827F0DD10B460092002280212046C9
:1037700000F016F870B1606D40F020006065032025
:1037800038BD009830B1401E009020688068C0436A
:103790000006F6D5002038BD3401002000366E0149
:1037A0002DE9F8431E46914688460446089DFDF7DC
:1037B000F3FD401B351AFDF7EFFD0746254800686D
:1037C000C0F3CB30684338E0701C37D0FDF7E4FD20
:1037D000C01BA84203D215B1009860B32CE020684A
:1037E000416821F0E00141606068B0F5827F0BD153
:1037F000A068B0F5004F02D0B0F5806F04D120680A
:10380000016821F040010160A06AB0F5005F09D1B4
:103810002068016821F4005101602068016841F4CA
:1038200000510160012084F85100002084F850000C
:103830000320BDE8F8830025401E009020688168C1
:1038400038EA010004D000214945BDD10020F0E74D
:103850000121F9E7340100207047FDF7A3BD000006
:103860000248016841F470010160704788ED00E092
:1038700010B50A4C2068C068C043C00709D1084889
:103880000069804721680020486221686420C8627E
:10389000E06021686FF00100086110BDA06B00209E
:1038A000DC0100202DE9F047DFF89CA0DAF80000E9
:1038B0000069C043C00744D1DFF890800026DFF8DC
:1038C0009090D8F80400012818D1D8F814000228E4
:1038D0001CD00025C5EB0511002409EB011700BF22
:1038E00057F82400C01C03D147F8246009F0F2FC0B
:1038F000641C3C2CF4DB6D1C1E2DEBDBD8F8141083
:10390000022919D1D8F80400012815D10025C8468C
:10391000C5EB0510002408EB001700BF57F8240082
:10392000401C03D147F8246009F0D4FC641C3C2CF3
:10393000F4DB6D1C1E2DEBDBDAF800006FF00101EB
:103940000161BDE8F0870000A05700203801002089
:1039500018030020F0B50268254C264D264E274F4F
:10396000274B4FF0804CA04209D0604507D0A842B9
:1039700005D0B04203D0B84201D0984204D122F021
:10398000700E4A6842EA0E02A0421BD0604519D070
:10399000A84217D0B04215D0B84213D0984211D0E7
:1039A000184DA8420ED0184DA8420BD0174DA84272
:1039B00008D0174DA84205D0164DA84202D0164D8A
:1039C000A84203D122F44075CA682A434D6922F007
:1039D00080022A4302608A68C2620A688262A04248
:1039E00001D0984201D10969016301214161F0BD13
:1039F000000001400004004000080040000C0040AE
:103A000000040140004001400044014000480140E2
:103A100000180040001C00400020004010B501F0DC
:103A20001F030121046A99408C430462016A9A4091
:103A30001143016210BD000070B5046A24F0010456
:103A400004628469056A154EB04214D0B0F1804F0B
:103A500011D0134EB0420ED0124EB0420BD0124EC7
:103A6000B04208D0114EB04205D0114EB04202D043
:103A7000104EB04203D124F00304144301E044F09B
:103A800001041A0724F0F00444EA126225F00A0344
:103A900001F00A0119438261016270BD000001401A
:103AA0000004004000080040000C004000040140F9
:103AB000004001400018004030B5046A24F01004B2
:103AC00004628469056A24F4407444EA022222F400
:103AD00070444FF6FF7202EA03322243A02425F01D
:103AE000A00304EA011119438261016230BD10B5DF
:103AF000806B0021C185C184FEF76DFF10BD016898
:103B0000CA6822F49072CA6001684A6922F0010210
:103B10004A61016B012904D10168CA6822F01002D0
:103B2000CA60202180F83E1000210163704710B563
:103B3000044690F83E00222801D0022010BDA16862
:103B40004FF48052914201D1206920B1A06A914284
:103B50001BD049B10AE02168A06A4968C1F3080195
:103B60000180A06A801C08E0216971B12168496860
:103B700001F07F010170A06A401CA062E08D401E30
:103B80000004000CE08503D01CE021684968F1E7DF
:103B90002068C16821F02001C1602068C16821F45B
:103BA0008071C1602068416921F0010141612020DC
:103BB00084F83E00206B012806D02046FFF7A4F8C9
:103BC00000202063002010BD2068C16821F0100192
:103BD000C160A18D2046FEF7FDFEF1E770B50446F9
:103BE00000680169E26821F44051114301612169D3
:103BF000A068E26908436169114308432168CA6803
:103C000049F20C639A430243CA6020684169A26981
:103C100021F440711143416131492068884202D04A
:103C20003049884202D1FDF7E5FC01E0FDF7D2FC06
:103C3000E2690023192164253226B2F5004F62683B
:103C400028D0A0FB0101930F9200FCF760FB014616
:103C5000B0FBF5F06FF01802504301EB800006EB6B
:103C60000010B0FBF5F000F0F002B1FBF5F002EB54
:103C70000012B1FBF5F06FF01803584301EB800020
:103C800006EB0010B0FBF5F000F00F0021681044C7
:103C9000886070BDA0FB010192185B41FCF737FB07
:103CA0000146B0FBF5F00201B1FBF5F06FF018032F
:103CB000584301EB800006EBC000B0FBF5F000F0CC
:103CC000F80002EB4002B1FBF5F0584301EB800035
:103CD00006EBC000B0FBF5F000F00700D6E70000EF
:103CE000001001400014014081628285C2850021DC
:103CF0000164222280F83E2080F83C100168CA68E6
:103D000042F48072CA6001684A6942F001024A6165
:103D10000068C16841F02001C160002070470000C8
:103D20000148FEF759BE0000B0580020FEE7090721
:103D3000090E002804DB00F1E02080F80014704731
:103D400000F00F0000F1E02080F8141D70473038BB
:103D50000A2801D201207047002070477047C91C13
:103D6000D0F88830002221F003018B4206D35A1A82
:103D7000C0F8882050F8842F114401601046704725
:103D800030B50F4887B0016841F02001016000683C
:103D90004FF4807400F0200005900120CDE9004030
:103DA00002900220074D039069462846FDF7E6F988
:103DB000002221462846FDF7E4FA07B030BD000096
:103DC00030380240001402402DE9F047044688468E
:103DD000217BD4E9000601F01F070121B940256EBF
:103DE000491E4FF000090D4023E000BF94F8641015
:103DF000A1B940B9A668D4F88C304FF4806231463E
:103E00002046984760B116F8011B401EB9F1000F1B
:103E10000AD04FF0000909B184F86410FF2105E0D1
:103E20006FF00100BDE8F087FF290FD041EA0525BA
:103E300008374745DAD3A7EB080125662173C4E9A3
:103E4000000601F01F0125FA01F0EBE74FF0010930
:103E5000EFE700002DE9F04F5FF0000350F8402B32
:103E60004FF4B55C50F8405B4FF4B5580468066CED
:103E70001719141BAA1B02FB0CF24FEA223C721901
:103E8000ACEB020505EB0409A4EB050ABE18A7EB91
:103E9000020B50F860CC056E50F8207CACEB0504AA
:103EA000026AAC44D51B3A44ACEB020707FB08F7A7
:103EB0004FEA27386244671941F6905C07FB0CF71C
:103EC00041F2511C04FB0CF442F6CF1C05FB0CF52F
:103ED0003F13A7EB2535AD1A06EB020CB21A40F8DA
:103EE00080CC0266A7EB243409EB0502A8EB05079A
:103EF00040F8602CA9EB050202640AEB070240F8C7
:103F0000402CE41BAAEB070202620BEB040240F810
:103F1000202CABEB04025B1C40F87C29082B9DDBBA
:103F2000002220384FF4B55C50F8083B521C50F882
:103F3000084B03F5004350F8105B50F8086C5F190C
:103F40005D1BA31B03FB0CF34FEA233C3319ACEBC3
:103F5000030606EB050AFC18A7EB030BAD1B50F894
:103F6000046C50F81C7C50F80CCC50F8148CBB1B23
:103F700007EB0609ACEB0806C444A9EB0C074FF4A9
:103F8000B55807FB08F74FEA273E0CEB090703EB90
:103F9000060C41F690580CFB08FC41F2511803FB4B
:103FA00008F342F6CF1806FB08F64FEA2C3C04EB68
:103FB0000708ACEB2333ACEB26364FEA2828A6EBF8
:103FC000070C21F80E8BE41B241221F80C490AEB94
:103FD0000C04241221F8024BAAEB0C04AEEB0C06E5
:103FE00024120C81AC19241221F8044BAC1B2412AE
:103FF0009B1B4C800BEB03042412ABEB03031B1243
:1040000021F8024C21F8083B082A8BDBBDE8F08F31
:1040100089B280B208F09DBE2DE9F05F0746406B83
:10402000891E00EB1135C1F3C80601F007014FF0FE
:10403000010B0BFA01F09A469146C4B229466D1C59
:10404000384608F065FA10B10120BDE8F09F5A46E5
:104050004FF40073B91991F83C00204202D04FF0A0
:10406000010801E04FF00008D04501D10220ECE743
:10407000604081F83C00B9F10100FA708146E4D05B
:10408000600010F0FF04E5D10124761C9E42E1D3CC
:104090000026D3E770B504460020E070401EA06300
:1040A000204608F035FA08B1042070BD04F23A2029
:1040B00007F0FFF94AF655260546B04206D10B2215
:1040C0002BA104F13C00FCF749FB40B194F83C0003
:1040D000EB2806D0E92804D0E82802D041E00120EE
:1040E00070BDB54207D1082224A104F18E00FCF76F
:1040F00035FB0028F4D004F1470007F0DAF994F812
:104100004910421E10422CD14FF40072904228D325
:10411000904226D829B3481E014222D104F14A0018
:1041200007F0C7F9E8B194F84C00401E012818D8F0
:1041300004F14D0007F0BDF998B104F14F0007F00C
:10414000B8F9802806D204F15C0007F07CF9B0F5DC
:10415000803F06D304F1520007F0ABF908B100200C
:1041600070BDB54201D1022070BD032070BD0000BA
:10417000EB76904558464154202020004641543368
:10418000322020200000000070B5002003F0A0FEC7
:10419000002847D00125244C01281AD002280CD031
:1041A000032828D0042830D1B4F90200012801D016
:1041B000401E0CE06068008809E06068B0F90010FB
:1041C000B4F90200814201D165801EE0401C60808C
:1041D0001BE0B4F90200616800EB800001EB800194
:1041E00051F80C0C10B18047257019E051F8080CFB
:1041F00058B16060E8E7B4F90200616800EB800044
:1042000001EB800050F8040CF2E7207840B94CF242
:10421000186003F0C1FEB4F90210606800F0F2FF0C
:104220000020207070BD00000000002070B5016803
:10423000046D500A4D8940EAC350590A2A460023AA
:10424000241DFCF764F802CC21B1884204D3401A43
:10425000241DF8E7002070BD2168084470BDC269C4
:10426000891E921E8A4201D800207047026B408945
:1042700000FB0120704700002DE9F05F82460C46EC
:1042800001F11A0007F015F978BB2078012700F03A
:104290003F00401E00EB8001DFF8589001EBC005A5
:1042A00000264FF6FF7B00BF19F80600204407F0F8
:1042B00000F980466FB1FF2D17D801F047FE074681
:1042C0003AF815006D1C01F041FE87420DD14746BA
:1042D00001E0D84509D1761C0D2EE5D320784006A3
:1042E00006D52FB13AF8150010B10020BDE8F09FB7
:1042F0000120FBE7102501082DE9F04706685FEA79
:10430000010807462BD04146384602F06DFA0228D4
:1043100046D3411C45D0F169814242D84546B06937
:1043200000283ED030784FF0FF3904281ED0454594
:104330005FD1F0696C1CA04200D8022421463846A7
:1043400002F052FA01282CD0411C2AD080B37069A7
:1043500002284ED3F16981424BD9054649E075697F
:1043600015B1F069A842DAD80125D8E7012229461B
:10437000304601F05FFE040062D0601C60D0012373
:104380001A4621463046FFF747FE022808D001288A
:1043900009D0B8F1000F08D0F979022909D010E04E
:1043A0000120BDE8F0874846FBE70221F97143E0B0
:1043B0001EE0691C8C423FD0B968691AB9610321BB
:1043C000F97108F101018C4206D1F96909B1491C62
:1043D00000E00221F9612FE0F869012500B9FD61D3
:1043E00022464146384601F00CFE30BBFD6129E013
:1043F000A4B92C46F069641CA04202D80224022D04
:104400000AD32146384602F0EFF938B10128C8D066
:10441000411CC6D0AC42EDD10020C2E74A4621463D
:10442000304608F0D7FC40B95FEA08000AD00146E0
:104430002246304608F0CEFC20B101280FD00124DE
:104440002046AEE77461D6E90601891E884201D88C
:10445000401EB061307940F001003071F0E74C4609
:10446000EEE700002DE9F74F84B00C46D9E01128A3
:1044700057D3A0F1110814F8010B10F0EE0F50D132
:104480004FEA101A00F00F00039010210498FFF774
:1044900066FC050078D0DDE9031000EBC10101EBFB
:1044A0008A0B00200646CBF8205000BF14F8011BF1
:1044B0002954401C0E441028F8D371000498FFF7CB
:1044C0004EFC5FEA00095FD00021084602464FF625
:1044D000FF77CBF830902B5C05E000BF29F8121075
:1044E000491C89B2521C5B1EF8D2401C07EA4101EC
:1044F0001028F0D3B04514D3A8EB0600069031463F
:104500000498FFF72CFC0290F0B3CBF84000002099
:104510000EE000BF14F8011BBAF1000F05D10B2902
:1045200003D9062007B0BDE8F08F029A1154401C51
:10453000B042EFD3002001900090BAF1000F11D0EB
:104540004FF4006631460498FFF709FC0190D8B19A
:104550000146DDE9030202EB8000FF22C16631461D
:10456000019810E04FF4806631460498FFF7F7FB9E
:10457000009048B10146DDE9030202EB8000FF2212
:1045800041673146009800E020E0FCF7D9F90021AE
:104590000A466B5C7BB3C1F10907012000FA07FBF7
:1045A00039F81200029EB840C0F3090016F802C0A4
:1045B000BAF1000F15D04FF4807606EB01264CEAD5
:1045C000060C5E461FFA8CFC521C07E00320A9E78C
:1045D000DDF8048028F810C0401C761E002EF7D1AC
:1045E00012E0102606EB01164CEA060C5E460CF0B3
:1045F000FF0C521C06E009E0DDF8008008F800C05E
:10460000401C761E002EF7D15B1EC9D1491C0A2919
:10461000BFD3DDE9031000EB410101EB0A0080F894
:104620006520069800287FF422AF7BE72DE9FC5F28
:10463000824608680190DAF800000E460025C76837
:104640004FF4803801A809F06BFB411C3BD040457A
:1046500003D3010C27F815106D1C84B2202C1CD339
:104660002F2C10D05C2C0ED0802C04D2214676A0AA
:10467000FCF76AF838BBFF2D25D227F815406D1CD2
:10468000E0E7401C0190019801782F29F9D05C29BE
:10469000F7D00024C8B2202800D20424019830604A
:1046A00009E000BF07EB450030F8020C202801D0DC
:1046B0002E2802D16D1E002DF4D1002027F8150000
:1046C0000DB1002603E00620BDE8FC9F761C37F8FC
:1046D00016002028FAD016B938882E2803D144F0C5
:1046E000030400E06D1E2DB107EB450030F8020C0D
:1046F0002E28F7D120220B210AF14000FCF720F9E7
:104700004FF000084FF0080BCDF8008037F8160086
:1047100006F101065FEA000924D0B9F1200F04D0A8
:10472000B9F12E0F04D1AE4202D044F00304EDE7FC
:104730000098584501D2AE4219D1BBF10B0F0FD0F2
:10474000AE4201D044F003040CD84FF008000090B2
:104750004FEA88602E464FF00B0B4FEA1068D5E702
:1047600044F003049AF84000E52849D04BE048465D
:10477000B9F1800F08D344F0020401F0E7FB4FF4D5
:104780006A7101F0ABFB8146B9F1FF0F13D90099B3
:10479000ABF10100814204D344F00304CDF800B032
:1047A000B4E700984FEA1922504480F8402000985E
:1047B000401C00901BE0B9F1000F04D0014625A079
:1047C000FBF7C2FF20B14FF05F0944F003040EE095
:1047D000A9F14100192801D848F00208A9F16100A7
:1047E000192804D8413048F001081FFA80F9009ACE
:1047F0000AEB020181F840900098401C009085E788
:1048000005218AF84010BBF1080F03D14FEA8860F8
:104810004FEA1068C8F38100032803D06FEA08004C
:10482000800701D144F00204A00709D45FEAC870F0
:1048300001D044F010045FEA487001D544F0080448
:104840008AF84B4000203FE72A3A3C3E7C223F7FDB
:10485000000000002B2C3B3D5B5D00002DE9F05F6C
:10486000894605464021FCF773F885202870C02052
:104870004024002685F8200037464FF00108B24654
:104880004FF0C10B05F804B0641C05F804A0641CCB
:10489000B8F1000F06D039F816005FEA000801D021
:1048A000761CF6B22819414609F02BF8A41CE00644
:1048B000EED17F1C39F81600FFB20028E2D185F84E
:1048C00023607F1C6F7048460AF07EFC014605F1AC
:1048D0002400BDE8F05F09F014B8812803D3FE2856
:1048E00001D801207047002070470000014908608E
:1048F00070470000600100204FF47A71484300F0D7
:1049000001B8000070B54FF0E02400226569094944
:10491000A36909684843A1699942FCD002D2A3EB7C
:10492000010302E0A5EB010633441A440B46824220
:10493000F1D370BD6001002070B5074E00244FF424
:10494000807529463046FCF714FD0220FFF7D4FF9E
:10495000641C022CF5DB70BD001402401CB510492C
:1049600000204FF4FA7488610E484FF47841182300
:104970000088CDE900010CA22146002009F0E8FAE8
:104980006000FFF7B9FF4CF21860009040F2262358
:104990004FF4AF722146002006F068F81CBD0000FD
:1049A0003801002044590020C9E8D6C3B3C9B9A6CC
:1049B000000000001CB5104901204FF4FA74886112
:1049C0000E484FF4784118230088CDE900010CA26D
:1049D0002146002009F0BCFA6000FFF78DFF4CF281
:1049E0001860009040F226234FF4AF722146002059
:1049F00006F03CF81CBD000038010020445900209E
:104A0000C9E8D6C3B3C9B9A6000000002DE9F0413A
:104A10000F4604460021066800F018FBE8B900259F
:104A20003046A16B07F074FDB8B931780429E16B09
:104A3000097803D0E52905D021B107E041F3C01181
:104A4000491C03D06D1CBD420AD000E000250121A5
:104A5000204600F0FFF80028E2D0042800D107200B
:104A6000BDE8F0812DE9F0470C46054609F0DCF879
:104A7000A8BB21462846FFF7F2FB0646A8634FF481
:104A8000007705F13C0039468046FBF783FF6889D3
:104A9000BC01B4EB402F04D9440200E06408BC42DE
:104AA0001ED9204601F0DAF95FEA0009F6D0BC42CF
:104AB00016D92146FBF74CFF670A002400E03C446E
:104AC0006889A04207D9321968783B46494600F008
:104AD00070FB0028F3D0484601F0C4F90FE011E064
:104AE0000127002400E03C446889A04207D932191C
:104AF00068783B46414600F05CFB0028F3D06889AB
:104B0000A04202D00120BDE8F0870020FBE72DE99C
:104B1000F05F04460021056800F098FA00284CD1A7
:104B2000287804280CD0FF264FF0FF38B146C4F88F
:104B30004C802846A16B07F0EBFC07004ED13EE00D
:104B4000E8680AF041FB82462FE02869243006F02D
:104B5000B0FC504529D1286940264FF0000990F853
:104B6000238017E0F00600D1B61C2869304406F017
:104B7000A0FC01F0EBF9E968074631F8190001F0F3
:104B8000E5F987420AD1A8F1010000F0FF0809F118
:104B90000109B61CB8F1000FE4D102E0B8F1000F32
:104BA00003D1E96831F8190030B10021204600F046
:104BB000B3F85FEA000BC8D05846BDE8F09FE16B40
:104BC000087850B1CA7AE52802F03F02A27135D0C8
:104BD000130704D50F2A31D105E0042738E00F2A46
:104BE00001D0DEB11FE094F84B20520629D44206D2
:104BF00006D591F80D9000F0BF00226B0646E264E6
:104C0000B04208D14A7B4A4505D1E868FFF734FB3A
:104C100008B1761E00E0FF26F6B212E0084608F062
:104C2000B4FF484514D094F84B00C00706D10B22BE
:104C300004F14001E06BFBF791FD48B1FF26C4F899
:104C40004C800021204600F005F807003FF471AFCA
:104C50003846B2E72DE9F04707680446066B387816
:104C60002036894604280AD04FF400104FF000087F
:104C7000B04238D9A06B28B1F10506D044E04FF01E
:104C80008050F3E70420BDE8F087401CA063616B0F
:104C900029B17889401E10EA562F05D034E03889B2
:104CA000B0EB561F1FD92FE0204601F09DFD0546B1
:104CB00001281DD9681C14D0F869A8421ED8B9F182
:104CC000000F10D02046616BFFF716FB05000DD0DA
:104CD000012D0DD0681C04D029463846FFF7C2FECE
:104CE00040B10120CFE7C4F83880CBE70720CAE7FE
:104CF0000220C8E7E07940F00400E0712946384618
:104D00006563FFF7ACFAA063C6F3080038443C3093
:104D10002663E0630020B6E72DE9F0470426FF2470
:104D200089460546A04607685FE0384607F0F0FB75
:104D300006005ED1E96B087898B13A78042A12D05F
:104D4000CA7AE52802F03F02AA7108D02E2806D0C0
:104D500022F02003082B1BD0B446CC451BD0FF24E7
:104D600033E0042645E0B9F1000F02D0832842D099
:104D70002BE0852829D1286BE864284606F0F1FB52
:104D8000060036D13869007900F03F00A87132E0A2
:104D90004FF0010CE1E70F2A01D014BB1CE04206E2
:104DA00006D591F80D8000F0BF002A6B0446EA6436
:104DB000A04208D14A7B424505D1F86807F07CFE45
:104DC00008B1641E00E0FF24E4B200212846FFF78A
:104DD00041FF060009D00CE0084608F0D6FE404529
:104DE00009D04FF0FF30E86405E0A96B00299CD1A1
:104DF0000EB10020A8633046BDE8F0872DE9F04FE2
:104E00000446056890F84B0099B010F0A00F03D04D
:104E1000062019B0BDE8F08F0026E86800E0761C97
:104E200030F816100029FAD1287804281AD004F195
:104E3000400016AB07C883E807009DF8630004F143
:104E40004008C1076BD0402084F84B0001273B4647
:104E500016A94046EA6801F079FC2046FFF757FEA4
:104E6000F0BB51E00F200E36B6FBF0F6B61C314613
:104E70002046FFF7CBFD0028CBD171422022206BCA
:104E800002EB41110844E064E079410736D520F097
:104E90000400E071204601F09DF80028B9D1421EBF
:104EA0002046616B01F0ADF80028B2D1A06828B3AC
:104EB000214602A806F038FB0028AAD16889D4E967
:104EC00004234002121843F10003C4E904232869B3
:104ED000383008F0F1FCD4E904232869283000E0D8
:104EE00015E008F0E9FCE079296940F0010081F85B
:104EF000210002A808F014FE00288AD1D5E9031089
:104F0000FFF7ACFC002084E77F1C642F9FD3642F45
:104F10000FD00428F7D19DF8630084F84B009DF86A
:104F20006300800707D50D200C36B6FBF0F77F1C19
:104F300002E007206DE7012739462046FFF766FDAE
:104F400006007FD17F1E05975FD0216B784201EB71
:104F50004011204600F07AF8060073D1404608F070
:104F600014FE4FF6FF7B08902846A16B07F0D0FA9D
:104F7000060067D1E86804900598D4F83C90C0B268
:104F80000390089989F80D100F2189F80B10002162
:104F900089F80C1009F11A0008F0B3FC0398DFF847
:104FA000A8A0401E00EB800101EBC008002701E033
:104FB0005E4504D0049830F8186008F101081AF82A
:104FC000071001EB0900314608F09BFC06B95E466C
:104FD0007F1C0D2FECD35E4505D0049830F81800E7
:104FE00008B1039803E0039840F04000039089F86B
:104FF00000000120E87000212046FFF72BFE06008C
:1050000020D10598401E0590AED12846A16B07F02F
:105010007FFA060016D154F83C0F2021FBF798FCCC
:10502000206861680160A1684160A1890181A17B5C
:105030008172E07B216800F018000873012000E015
:1050400000E0E8703046E4E6102501082DE9F04163
:10505000066805460F463078042806D04FF4001045
:10506000B8423CD9F8063AD102E04FF08050F7E759
:105070002F63AC6834B93078032807D30020F46A72
:10508000E8711CB170894FEA402812E03089B0EB1A
:10509000571F24D9F06A12E0284601F0A5FB044608
:1050A000401C1AD0022C1AD3F069A04217D9A7EBE2
:1050B000080747452146EFD23046FFF7D0F8C5E94B
:1050C0000D4060B100EB5720A863C7F308003044DF
:1050D0003C30E8630020BDE8F0810120FBE70220BE
:1050E000F9E710B510B1012803D104E008F070F819
:1050F00018B1012010BD07F007FB002010BD000013
:105100004FF4007318B1012814D00120704739B151
:10511000114801290AD0022904D0032908D103E04B
:10512000002070471360FBE7808B0CE0806910E083
:10513000042070470029F3D0012908D0022904D0A7
:105140000329F5D108201080EAE71380E8E74FF43F
:10515000C0401060E4E70000D85900202DE9F0417C
:105160001C0015460E4605D030B1012810D0012094
:10517000BDE8F0810420FBE71A4602E008F028F8B9
:1051800022462946304608F047F80028F6D10CE0C0
:105190004FF4007769023A46304607F001FB641E7F
:1051A00005F1010506F50076F4D10020E0E70020C6
:1051B00070472DE9F0411C0015460E4605D030B170
:1051C000012810D00120BDE8F0810420FBE71A4639
:1051D00002E007F0FDFF22462946304608F036F887
:1051E0000028F6D10CE04FF4007769023A463046C9
:1051F00007F06AFB641E05F1010506F50076F4D19F
:105200000020E0E72DE9FC47064640F2CF10009071
:105210004FF49674C1EB011004EB400083B2114FC0
:105220001E384FF0000981B23A88484605F01EFC4E
:1052300000254FF6FF780FE03988CDE9001805EB1F
:10524000850006EB8000102342682146484608F09E
:105250007FFE1E34A4B26D1CB6F90000A842EBDC40
:10526000BDE8FC87445900201CB5114864214FF467
:10527000FA740161002141610E484FF4784118230E
:105280000088CDE900010CA22146002008F060FE54
:105290006000FFF731FB4CF21860009040F22623CB
:1052A0004FF4AF722146002005F0E0FB1CBD00006A
:1052B0003801002044590020C9E8D6C3B3C9B9A6B3
:1052C00000000000412803D3612801D32038C0B278
:1052D000704700002DE9FC410021491C0278C9B249
:1052E00012B1401CFA29F8D3FA2931D05FF000013D
:1052F00010F8012D2E2A04D0491CC9B20529F7D374
:1053000026E0401C010023D06846FBF753FA002139
:105310006A46505CFFF7D6FF5054491CC9B20429B5
:10532000F7D30F4F0024C4EBC400002507EB800621
:1053300056F82500017839B16946FBF753FB50B1A7
:105340006D1CEDB2072DF3D3641CE4B2072CEAD335
:10535000FF20BDE8FC8145EA0410C0B2F9E7000077
:105360004C24010870B50B4D00244FF40F763146E4
:10537000002007F099F945F8240018B1641CE4B244
:10538000022CF4D306F02AFD022C01D1002800D013
:10539000012070BDF402002070B586B002F048FD17
:1053A000224D1020CDE90005214E012469460294CA
:1053B0003046FBF7E3FE0820CDE90005694602947C
:1053C0003046FBF7DBFE0420CDE900056946029478
:1053D0003046FBF7D3FE17486946CDE9004002206E
:1053E00002901548FBF7CAFE022200210A20FCF7B2
:1053F00025F80A20FCF715F8022201210920FCF704
:105400001DF80920FCF70DF8022211460820FCF7D0
:1054100015F80820FCF705F8022203210620FCF706
:105420000DF80620FBF7FDFF06B070BD000021104F
:1054300000100240000011100000024038B5044680
:1054400000F059FC002806D16946204609F086FE86
:10545000002800D1206038BD2DE9F04F89B01746F3
:105460009846044601A909F079FE5FEA000A7CD15A
:1054700094F831A05FEA0A00F9D101980078042875
:1054800007D1421F2046216C00F0BBFD5FEA000AF5
:10549000EDD1206D04F154014FF0010B0091002873
:1054A00079D0FA4372EA080235D0D4E90410CB1B54
:1054B00070EB080201D20F468046C4E90E7857EA25
:1054C000080052D07A1E48F1FF3316461D4620468A
:1054D000FEF7ACFE014620640198FEF7C0FE0028EE
:1054E0007DD0019B710A41EAC5515A89521E114073
:1054F0000D18208FC005E4D0626CAA42E1D094F868
:10550000300000063BD5587801230099FFF751FE83
:10551000002865D12DE050F8049BA1688046022543
:10552000E1B10026AD1C04910F462046761C01F027
:105530005BF90146012852D9481C51D07F1CB94261
:10554000F2D04D4506D8C8F8006008F10400049A6E
:1055500004C080460198C0698842E2D8206D4D455C
:10556000056003D80020C8F80000F6E04FF0110AEB
:10557000F3E094F8300000F07F0084F830000198E8
:1055800001232A4640780099FFF7E8FD0028C0D1A2
:105590006564E2E0FFE7019A1078042806D0B8F1CC
:1055A000010F03D34FF0FF374FF00008D4E9041088
:1055B000CD1B70EB080305D294F830309B0701D463
:1055C0000F468046D4E90E10CDE903010020029079
:1055D000C4E90E0057EA08003AD0508901E0A1E082
:1055E000A6E04FEA4029DDE90310084322D0781EE7
:1055F00048F1FF314A460023FAF789FE05460E4678
:10560000DDE90310401E41F1FF31CDE905104A46A6
:105610000023FAF77CFE281A8E410BD3DDE9050141
:10562000A9F101029143C4E90E107F1A68EB00084A
:10563000216C0CE0A16849B900212046FEF75CFE10
:10564000014601286ED0481C72D0A160216479BB4C
:1056500046E04B46D4E90E52FF1A68EB000815EB02
:1056600009034241C4E90E3294F83000850712D58F
:10567000D4E90465F61A954105D2C4E9043240F034
:10568000400084F830002046FEF736FE010006D1C7
:105690000027B84612E0204601F0A6F80146481C53
:1056A00055D001293ED90198C06988423AD9216470
:1056B0000020B9EB070270EB0802CAD3D4E90E3020
:1056C000DB1940EB0800C4E90E30F80508D001985A
:1056D000FEF7C5FD30B3790A41EAC851084402908B
:1056E000D4E90E01D4E904321B1A8A4107D2C4E975
:1056F000040194F8300040F0400084F83000208F1E
:10570000C0052AD0626C0298824226D094F83000FC
:10571000000614D50198012300994078FFF749FD50
:1057200030B906E0022084F8310009B0BDE8F08FFE
:105730000DE094F8300000F07F0084F8300001980C
:105740000123029A40780099FFF708FD18B184F808
:1057500031B00120E9E7029860645046E5E70000B7
:1057600017B581B0144602980090684601F0C2F95E
:10577000002802DA0B2004B010BD0A4A002352F8B8
:10578000201001B10B70019901B10B7042F820108B
:105790002CB1002201A902A806F0EAFCEBE70020E8
:1057A000E9E70000000300202DE9F74F96B005005F
:1057B0000BD002F03F063246694617A806F0D8FC27
:1057C00004004FF0000A04D037E1092019B0BDE809
:1057D000F08F009802904FF48C6000F03FFB5FEA7E
:1057E00000090BD0009809F50071C0E9039102A8E7
:1057F000179900F067FC040002D006E01120E5E7ED
:105800009DF85300000600D5062416F01C0F7DD02D
:105810004CB1042C03D102A8FFF7F0FA044646F07D
:1058200008065CB1EEE09DF80E0010F0110F01D0FB
:105830000724E7E0700701D50824FBE0300767D5AF
:1058400000984FF020084FF0010B017804292CD06C
:1058500001F064F80746119839460E3008F024F834
:1058600011983946163008F01FF81199009805F084
:10587000D7FD11990746002281F80B8011990098F5
:1058800007F0FEFF119800211C3008F00DF8009978
:1058900081F803B0DFB3D1F838800022394602A87E
:1058A00007F0D2FB040034D0ACE02946286001F0B8
:1058B00093FF00981E210069801CFBF749F80098AF
:1058C0001A2100692630FBF743F80099096981F82D
:1058D000048001F023F8014600980069083007F0C1
:1058E000E3FF009902A8096981F821B008F018F9CE
:1058F000040017D1A96851B10022284607F0A4FB83
:105900000446A8680099401E48610AE00BE018E0D0
:1059100019E04146009806F0FBFD044600987F1E02
:10592000476164B16EE0E4BB9DF80E00C10601D58D
:10593000042467E0B10702D5C0077FF479AF3007D0
:1059400001D546F040060098816BA9641199E9647D
:105950000178042931D0119905F062FDA8601198F1
:105960001C3005F070FDC5E9040A00BFC5F850A061
:10597000009929600020C988A98085F8306085F8E1
:1059800031A0C5F844A0C5E90E0005F154004FF45C
:1059900000718346FAF7FEFFB00654D5D5E90467D7
:1059A00000E02FE056EA07004DD0C5E90E670098E9
:1059B000A9684089400280461DE004992962069941
:1059C0009DF80F2021F0FF01114369621599A9622A
:1059D000294601F001FFC9E7284600F005FF01460E
:1059E000012800D80224481C00D101244046361A60
:1059F00067EB0A0724B90246921B7AEB0700EBD348
:105A0000296424B1484600F02DFAB4B917E0F00536
:105A100019D00098FEF723FC98B1710A41EAC751EA
:105A20000A186A640098012359464078FFF796FBEC
:105A300048B10124484600F015FAC5F800A02046F8
:105A4000C4E60224F6E7484600F00CFAF7E773B51F
:105A500082B0040007D00022694603A806F088FB44
:105A6000050003D043E0092004B070BD0098206019
:105A70004FF48C6000F0F2F906000BD0009806F5A8
:105A80000071C0E903612046039900F01BFB05008B
:105A900002D026E01120E7E794F84B00000618D466
:105AA000A079C00627D500980178042904D0E16BBD
:105AB00005F0B6FCA0600CE0A16821622169E279E2
:105AC00021F0FF0111436162E16CA162214601F006
:105AD00083FE00980021C088A0802046FFF7B6FA18
